S02800004469676974616C5F50574D5F436C6F7365644C6F6F705F41746D6567613838412E7372656339
S113000019C033C032C031C030C02FC02EC02DC083
S11300102CC02BC02AC083C028C027C026C025C03E
S113002024C023C022C021C020C01FC01EC01DC0C8
S11300301CC01BC011241FBECFEFD4E0DEBFCDBF58
S113004011E0A0E0B1E0E2E7F6E002C005900D9215
S1130050A230B107D9F721E0A2E0B1E001C01D92BE
S1130060A631B207E1F708D002C3CACF8EBD0DB4E2
S113007007FEFDCF8EB5089588E290E090930701C6
S11300808093060180E090EFA9E7B5E48093100126
S113009090931101A0931201B09313018AE098E2A6
S11300A0A0EABBE38093080190930901A0930A019D
S11300B0B0930B018DEC9CECACE4BEE380930C019B
S11300C090930D01A0930E01B0930F018FE284B9B8
S11300D088E387B982EE8AB9289A299A439A449A7E
S11300E0459A5D9A5E9A5F9A87E880937A0082E5E2
S11300F08CBD1DBCE1E8F0E0808188608083AFE6C0
S1130100B0E08C9182608C9378948FE99FE0909317
S1130110890080938800808181608083FFCF1F9253
S11301200F920FB60F9211248F929F92AF92BF92AB
S1130130CF92DF92EF92FF920F931F932F933F93EF
S11301404F935F936F937F938F939F93AF93BF93DB
S1130150CF93DF93EF93FF9310927C00EAE7F0E0F4
S1130160808180648083808186FDFDCF60917800EA
S11301707091790081E080937C00EAE7F0E080816F
S113018080648083808186FDFDCFC0917800D0910A
S11301907900C0900801D0900901E0900A01F09024
S11301A00B01009106011091070180E090E025D138
S11301B0A7019601B0D14B015C01BE0180E090E043
S11301C01CD1A7019601A7D19B01AC01C501B401C3
S11301D083D02DEC3CEC4CE45DE39DD12CE53FE871
S11301E042E85EE37AD06B017C01B80180E090E0E4
S11301F004D19B01AC01C701B6018DD1EFD1D1D09F
S11302009B017093150160931401809102019091F8
S1130210030180179107C0F01092030110920201AC
S1130220609110017091110180911201909113015C
S1130230B8D0709305016093040181E090E090933D
S113024001018093000111C040910001509101010E
S1130250452B59F08217930740F010920501109234
S113026004011092010110920001C0910401D09187
S11302700501CE0188279F70289880E3890FF6DE58
S11302808C2FF4DE289A299800C0299A80910201C3
S11302909091030101969093030180930201FF91D1
S11302A0EF91DF91CF91BF91AF919F918F917F910A
S11302B06F915F914F913F912F911F910F91FF90FB
S11302C0EF90DF90CF90BF90AF909F908F900F9062
S11302D00FBE0F901F9018955058BB27AA270ED019
S11302E0E0C0D1D030F0D6D020F031F49F3F11F4EB
S11302F01EF4C6C00EF4E095E7FBBCC0E92FE2D0C3
S113030080F3BA17620773078407950718F071F42E
S11303109EF5FAC00EF4E0950B2EBA2FA02D0B011A
S1130320B90190010C01CA01A0011124FF27591B36
S113033099F0593F50F4503E68F11A16F040A22F3C
S1130340232F342F4427585FF3CF469537952795AD
S1130350A795F0405395C9F77EF41F16BA0B620BAC
S1130360730B840BBAF09150A1F0FF0FBB1F661FF3
S1130370771F881FC2F70EC0BA0F621F731F841F36
S113038048F4879577956795B795F7959E3F08F05C
S1130390B3CF9395880F08F09927EE0F979587951B
S11303A0089598D088F09F5790F0B92F9927B751A6
S11303B0A0F0D1F0660F771F881F991F1AF0BA9525
S11303C0C9F712C0B13081F09FD0B1E008959CC04C
S11303D0672F782F8827B85F39F0B93FCCF386951B
S11303E077956795B395D9F73EF490958095709578
S11303F061957F4F8F4F9F4F0895E89409C097FBF5
S11304003EF490958095709561957F4F8F4F9F4FE7
S11304109923A9F0F92F96E9BB279395F69587952B
S113042077956795B795F111F8CFFAF4BB0F11F4EE
S113043060FF1BC06F5F7F4F8F4F9F4F16C0882395
S113044011F096E911C0772321F09EE8872F762FCB
S113045005C0662371F096E8862F70E060E02AF00C
S11304609A95660F771F881FDAF7880F96958795F8
S113047097F9089597F99F6780E870E060E0089520
S11304809FEF80EC089500240A94161617061806A8
S11304900906089500240A94121613061406050684
S11304A00895092E0394000C11F4882352F0BB0F15
S11304B040F4BF2B11F460FF04C06F5F7F4F8F4F78
S11304C09F4F089557FD9058440F551F59F05F3FB3
S11304D071F04795880F97FB991F61F09F3F79F062
S11304E087950895121613061406551FF2CF4695E4
S11304F0F1DF08C0161617061806991FF1CF869566
S11305007105610508940895E894BB276627772749
S1130510CB0197F908950BD0C4CFB5DF28F0BADF2B
S113052018F0952309F0A6CFABCF1124EECFCADF84
S1130530A0F3959FD1F3950F50E0551F629FF001F2
S1130540729FBB27F00DB11D639FAA27F00DB11D4B
S1130550AA1F649F6627B00DA11D661F829F2227D4
S1130560B00DA11D621F739FB00DA11D621F839F5B
S1130570A00D611D221F749F3327A00D611D231F31
S1130580849F600D211D822F762F6A2F11249F577F
S113059050408AF0E1F088234AF0EE0FFF1FBB1FA2
S11305A0661F771F881F91505040A9F79E3F510541
S11305B070F060CFAACF5F3FECF3983EDCF38695F2
S11305C077956795B795F795E7959F5FC1F7FE2BEC
S11305D0880F911D9695879597F908957BDFE0F034
S11305E09E37D8F09639B8F49E3848F4672F782FA0
S11305F08827985FF9CF8695779567959395953970
S1130600D0F3B62FB1706B0F711D811D20F4879547
S113061077956795939502C01CC077CF882371F4B2
S1130620772321F09850872B762F07C0662311F487
S113063099270DC09051862B70E060E02AF09A95BE
S1130640660F771F881FDAF7880F9695879597F9B5
S113065008959F3F31F0915020F4879577956795E1
S1130660B795880F911D9695879597F90895F894F5
S1050670FFCFB6
S1050672010081
S9030000FC
