S01F000050726573737572655F53656E736F725F54657374696E672E7372656396
S113000019C033C032C031C030C02FC02EC02DC083
S11300102CC02BC02AC071C028C027C026C025C050
S113002024C023C022C021C020C01FC01EC01DC0C8
S11300301CC01BC011241FBECFEFD4E0DEBFCDBF58
S113004011E0A0E0B1E0EAE2F4E002C005900D9214
S1130050A030B107D9F721E0A0E0B1E001C01D92C2
S1130060A031B207E1F708D0DEC1CACF8EBD0DB40E
S113007007FEFDCF8EB508958AE098E2A0EABBE3BF
S11300808093080190930901A0930A01B0930B0196
S113009080E090ECACE4B4E4809304019093050117
S11300A0A0930601B09307018FE284B988E387B96E
S11300B082EE8AB9289A299A439A449A459A5D9A73
S11300C05E9A5F9A87E880937A0082E58CBD1DBCB6
S11300D0E1E8F0E0808188608083AFE6B0E08C9155
S11300E082608C9378948FE79EE390938900809349
S11300F08800808181608083FFCF1F920F920FB6AA
S11301000F921124CF92DF92EF92FF922F933F939D
S11301104F935F936F937F938F939F93AF93BF930B
S1130120EF93FF9310927C00EAE7F0E08081806413
S11301308083808186FDFDCF809178009091790045
S113014081E080937C00EAE7F0E080818064808332
S1130150808186FDFDCF609178007091790080E008
S113016090E070D0209108013091090140910A017A
S113017050910B01CDD020910401309105014091A3
S1130180060150910701C4D031D06B017C017093FA
S1130190030160930201CB0188279F70289880E3B4
S11301A0890F64DF8C2D62DF289A299800C0299A70
S11301B08091000190910101019690930101809337
S11301C00001FF91EF91BF91AF919F918F917F912A
S11301D06F915F914F913F912F91FF90EF90DF903E
S11301E0CF900F900FBE0F901F90189570D088F08D
S11301F09F5790F0B92F9927B751A0F0D1F0660F0F
S1130200771F881F991F1AF0BA95C9F712C0B13029
S113021081F077D0B1E0089574C0672F782F8827D4
S1130220B85F39F0B93FCCF3869577956795B39568
S1130230D9F73EF490958095709561957F4F8F4FD7
S11302409F4F0895E89409C097FB3EF490958095DC
S1130250709561957F4F8F4F9F4F9923A9F0F92F88
S113026096E9BB279395F695879577956795B79506
S1130270F111F8CFFAF4BB0F11F460FF1BC06F5FEC
S11302807F4F8F4F9F4F16C0882311F096E911C0FE
S1130290772321F09EE8872F762F05C0662371F01F
S11302A096E8862F70E060E02AF09A95660F771F33
S11302B0881FDAF7880F9695879597F9089557FD63
S11302C09058440F551F59F05F3F71F04795880FC0
S11302D097FB991F61F09F3F79F087950895121657
S11302E013061406551FF2CF4695F1DF08C0161603
S11302F017061806991FF1CF8695710561050894B4
S11303000895E894BB2766277727CB0197F90895CA
S11303100BD078C069D028F06ED018F0952309F07E
S11303205AC05FC01124EECFCADFA0F3959FD1F36A
S1130330950F50E0551F629FF001729FBB27F00D8F
S1130340B11D639FAA27F00DB11DAA1F649F6627E4
S1130350B00DA11D661F829F2227B00DA11D621F33
S1130360739FB00DA11D621F839FA00D611D221FED
S1130370749F3327A00D611D231F849F600D211DD1
S1130380822F762F6A2F11249F5750408AF0E1F074
S113039088234AF0EE0FFF1FBB1F661F771F881FBD
S11303A091505040A9F79E3F510570F014C0AACF58
S11303B05F3FECF3983EDCF3869577956795B795A8
S11303C0F795E7959F5FC1F7FE2B880F911D9695D2
S11303D0879597F9089597F99F6780E870E060E042
S11303E008959FEF80EC089500240A9416161706CA
S11303F018060906089500240A9412161306140612
S113040005060895092E0394000C11F4882352F074
S1130410BB0F40F4BF2B11F460FF04C06F5F7F4F2C
S10D04208F4F9F4F0895F894FFCF0B
S9030000FC
