:1000000021C03BC03AC039C038C037C036C035C047
:1000100034C033C032C029C130C02FC02EC02DC063
:100020002CC080C12AC029C028C027C026C025C036
:1000300024C023C02AC02CC02FC032C035C038C055
:100040003BC03EC011241FBECFEFD4E0DEBFCDBF0A
:1000500011E0A0E0B1E0ECE7F7E002C005900D92FE
:10006000A231B107D9F721E0A2E1B1E001C01D92B0
:10007000AD31B207E1F7F7D07FC3C2CF8830910529
:1000800010F5FC01E65EFF4F099410927C001BC046
:1000900081E080937C0017C082E080937C0013C0D5
:1000A00083E080937C000FC084E080937C000BC0D1
:1000B00085E080937C0007C086E080937C0003C0CD
:1000C00087E080937C00EAE7F0E0808180648083B1
:1000D000808186FDFDCF8091780090917900089510
:1000E0004F925F926F927F928F929F92AF92BF9248
:1000F000CF92DF92EF92FF924B015C0169017A018E
:1001000040900E0150900F0160901001709011010D
:100110009B01AC01C301B20139D1A70196019AD16B
:10012000882314F429980BC0A3019201C501B401DE
:100130002CD1A701960199D218160CF4299AFF9098
:10014000EF90DF90CF90BF90AF909F908F907F9077
:100150006F905F904F900895CF93DF9300D0CDB70D
:10016000DEB7FC012081298381818A8389819A817C
:100170000F900F90DF91CF910895CF93DF9300D030
:10018000CDB7DEB79A838983FB0180838A8181831F
:100190000F900F90DF91CF910895BC0180E090E027
:1001A00089D120E031EC4FE75CE363D2C5D256D170
:1001B000CB010895BC0180E090E07CD129E03CEBCC
:1001C00049E85BE356D20895CF93C82F8A3011F4E3
:1001D0008DE0FADFE0ECF0E0808185FFFDCFC09399
:1001E000C600CF91089583E184B917B88EEF8AB91C
:1001F000289829982C985A985B985C985D985E98F6
:100200005F98089582EC8CBD8DB58EB50895E1E8B8
:10021000F0E0808188608083AFE6B0E08C918260FE
:100220008C938FE79EE39093890080938800808170
:100230008160808308951092C50080E18093C4009E
:1002400088E18093C10080E091E090931A0180934F
:1002500019010895C8DF87E880937A00D3DFD7DFDC
:10026000EADF78940895F6DFFFCF1F920F920FB662
:100270000F921124CF92DF92EF92FF920F931F9370
:100280002F933F934F935F936F937F938F939F939E
:10029000AF93BF93EF93FF93CF93DF9300D0CDB78E
:1002A000DEB785E191E058DF78DF84DF6B017C0108
:1002B00080E090E0E3DE8C01BE016F5F7F4F5DDF89
:1002C00080911201811108C08981E3E1F1E080830E
:1002D0008A81818380818EBDC8016CDF9B01AC0166
:1002E000C701B601FDDE9BB188E089278BB90F906D
:1002F0000F90DF91CF91FF91EF91BF91AF919F91BF
:100300008F917F916F915F914F913F912F911F91AD
:100310000F91FF90EF90DF90CF900F900FBE0F9056
:100320001F9018951F920F920FB60F9211242F93C2
:100330008F939F93EF93FF932EB58091120190E0DE
:10034000019681709078992324F401978E6F9F6FA6
:10035000019680931201E0911201F0E0ED5EFE4FF4
:1003600080818EBDE5E1F1E08181808321839BB1B5
:1003700080E189278BB9FF91EF919F918F912F9108
:100380000F900FBE0F901F9018955058BB27AA27AB
:100390000ED031C122D130F027D120F031F49F3F6F
:1003A00011F41EF417C10EF4E095E7FBE4C0E92F49
:1003B00033D180F3BA17620773078407950718F0E3
:1003C00071F49EF54BC10EF4E0950B2EBA2FA02DC3
:1003D0000B01B90190010C01CA01A0011124FF27F2
:1003E000591B99F0593F50F4503E68F11A16F040ED
:1003F000A22F232F342F4427585FF3CF46953795EC
:100400002795A795F0405395C9F77EF41F16BA0BB0
:10041000620B730B840BBAF09150A1F0FF0FBB1F5E
:10042000661F771F881FC2F70EC0BA0F621F731FA7
:10043000841F48F4879577956795B795F7959E3F04
:1004400008F0B3CF9395880F08F09927EE0F979592
:10045000879508956CD008F481E00895E5D088F080
:100460009F5790F0B92F9927B751A0F0D1F0660FA0
:10047000771F881F991F1AF0BA95C9F712C0B130BB
:1004800081F0ECD0B1E00895E9C0672F782F88277C
:10049000B85F39F0B93FCCF3869577956795B395FA
:1004A000D9F73EF490958095709561957F4F8F4F69
:1004B0009F4F0895E89409C097FB3EF4909580956E
:1004C000709561957F4F8F4F9F4F9923A9F0F92F1A
:1004D00096E9BB279395F695879577956795B79598
:1004E000F111F8CFFAF4BB0F11F460FF1BC06F5F7E
:1004F0007F4F8F4F9F4F16C0882311F096E911C090
:10050000772321F09EE8872F762F05C0662371F0B0
:1005100096E8862F70E060E02AF09A95660F771FC4
:10052000881FDAF7880F9695879597F90895990FA0
:100530000008550FAA0BE0E8FEEF16161706E807AD
:10054000F907C0F012161306E407F50798F0621BCE
:10055000730B840B950B39F40A2661F0232B242BA3
:10056000252B21F408950A2609F4A140A6958FEFC2
:10057000811D811D089597F99F6780E870E060E014
:100580000895882371F4772321F09850872B762FD4
:1005900007C0662311F499270DC09051862B70E097
:1005A00060E02AF09A95660F771F881FDAF7880FA8
:1005B0009695879597F908959F3F31F0915020F4D3
:1005C000879577956795B795880F911D969587952F
:1005D00097F908959FEF80EC089500240A94161669
:1005E000170618060906089500240A941216130621
:1005F000140605060895092E0394000C11F48823AF
:1006000052F0BB0F40F4BF2B11F460FF04C06F5FCA
:100610007F4F8F4F9F4F089557FD9058440F551FA0
:1006200059F05F3F71F04795880F97FB991F61F074
:100630009F3F79F087950895121613061406551FEB
:10064000F2CF4695F1DF08C0161617061806991F57
:10065000F1CF86957105610508940895E894BB274C
:1006600066277727CB0197F9089561DF08F48FEFAC
:1006700008950BD0C0CFB1DF28F0B6DF18F0952376
:1006800009F079CFA7CF1124EACFC6DFA0F3959F59
:10069000D1F3950F50E0551F629FF001729FBB2769
:1006A000F00DB11D639FAA27F00DB11DAA1F649F15
:1006B0006627B00DA11D661F829F2227B00DA11DC8
:1006C000621F739FB00DA11D621F839FA00D611D4E
:1006D000221F749F3327A00D611D231F849F600D6F
:1006E000211D822F762F6A2F11249F5750408AF0A8
:1006F000E1F088234AF0EE0FFF1FBB1F661F771F34
:10070000881F91505040A9F79E3F510570F033CF9C
:10071000A6CF5F3FECF3983EDCF38695779567951F
:10072000B795F795E7959F5FC1F7FE2B880F911D51
:100730009695879597F9089577DFE0F09E37D8F082
:100740009639B8F49E3848F4672F782F8827985F39
:10075000F9CF86957795679593959539D0F3B62F10
:10076000B1706B0F711D811D20F48795779567958A
:0C077000939507CF21CF73CFF894FFCFF3
:10077C000000000200000000E40000000000E4386B
:02078C000E3F1E
:00000001FF
