S01D00004469676974616C5F50574D5F41746D6567613838412E7372656397
S113000019C033C032C031C030C02FC02EC02DC083
S11300102CC02BC02AC084C028C027C026C025C03D
S113002024C023C022C021C020C01FC01EC01DC0C8
S11300301CC01BC011241FBECFEFD4E0DEBFCDBF58
S113004011E0A0E0B1E0EAE8F5E002C005900D920D
S1130050A630B107D9F721E0A6E0B1E001C01D92B6
S1130060AC31B207E1F708D08EC2CACF8EBD0DB451
S113007007FEFDCF8EB5089580910401909105018E
S113008060910201709103016AD270930B01609335
S11300900A0180E090EFA9E7B5E480931201909300
S11300A01301A0931401B093150184E090E09093A0
S11300B00D0180930C0181E098E0A0E8B9E38093FE
S11300C00E0190930F01A0931001B09311018FE2E0
S11300D084B988E387B982EE8AB9289A299A439A1F
S11300E0449A459A5D9A5E9A5F9A87E880937A006B
S11300F082E58CBD1DBCE1E8F0E0808188608083EE
S1130100AFE6B0E08C9182608C9378948FE99FE0A5
S11301109093890080938800808181608083FFCFE1
S11301201F920F920FB60F921124CF92DF92EF928B
S1130130FF922F933F934F935F936F937F938F938C
S11301409F93AF93BF93CF93DF93EF93FF9310925B
S11301507C00EAE7F0E0808180648083808186FD12
S1130160FDCF209178003091790080910C0190911D
S11301700D01289FB001299F700D389F700D112427
S113018080E090E0B2D020910E0130910F014091B7
S11301901001509111010FD16B017C016093180182
S11301A07093190180931A0190931B01C0910A0165
S11301B0D0910B01BE0180E090E097D0A701960199
S11301C0FAD05CD166D09B0170931701609316013D
S11301D080910801909109018C179D07C0F010923D
S11301E0090110920801609112017091130180912C
S11301F01401909115014DD070930701609306018D
S113020081E090E0909301018093000111C040913E
S1130210000150910101452B59F08217930740F0DA
S11302201092070110920601109201011092000130
S1130230C0910601D0910701CE0188279F702898AC
S113024080E3890F13DF8C2F11DF289A299800C0CF
S1130250299A8091080190910901019690930901CE
S113026080930801FF91EF91DF91CF91BF91AF91FE
S11302709F918F917F916F915F914F913F912F91BA
S1130280FF90EF90DF90CF900F900FBE0F901F90D4
S1130290189570D088F09F5790F0B92F9927B751CF
S11302A0A0F0D1F0660F771F881F991F1AF0BA9536
S11302B0C9F712C0B13081F077D0B1E0089574C0AD
S11302C0672F782F8827B85F39F0B93FCCF386952C
S11302D077956795B395D9F73EF490958095709589
S11302E061957F4F8F4F9F4F0895E89409C097FB06
S11302F03EF490958095709561957F4F8F4F9F4FF9
S11303009923A9F0F92F96E9BB279395F69587953C
S113031077956795B795F111F8CFFAF4BB0F11F4FF
S113032060FF1BC06F5F7F4F8F4F9F4F16C08823A6
S113033011F096E911C0772321F09EE8872F762FDC
S113034005C0662371F096E8862F70E060E02AF01D
S11303509A95660F771F881FDAF7880F9695879509
S113036097F9089557FD9058440F551F59F05F3F72
S113037071F04795880F97FB991F61F09F3F79F0C3
S113038087950895121613061406551FF2CF469545
S1130390F1DF08C0161617061806991FF1CF8695C7
S11303A07105610508940895E894BB2766277727AB
S11303B0CB0197F908950BD0C1C0B2D028F0B7D0C3
S11303C018F0952309F07AC0A8C01124EECFCADF33
S11303D0A0F3959FD1F3950F50E0551F629FF00154
S11303E0729FBB27F00DB11D639FAA27F00DB11DAD
S11303F0AA1F649F6627B00DA11D661F829F222736
S1130400B00DA11D621F739FB00DA11D621F839FBC
S1130410A00D611D221F749F3327A00D611D231F92
S1130420849F600D211D822F762F6A2F11249F57E0
S113043050408AF0E1F088234AF0EE0FFF1FBB1F03
S1130440661F771F881F91505040A9F79E3F5105A2
S113045070F034C0AACF5F3FECF3983EDCF386958E
S113046077956795B795F795E7959F5FC1F7FE2B4D
S1130470880F911D9695879597F908957BDFE0F095
S11304809E37D8F09639B8F49E3848F4672F782F01
S11304908827985FF9CF86957795679593959539D1
S11304A0D0F3B62FB1706B0F711D811D20F48795A9
S11304B077956795939508C022C077CF97F99F6782
S11304C080E870E060E00895882371F4772321F0D8
S11304D09850872B762F07C0662311F499270DC0F7
S11304E09051862B70E060E02AF09A95660F771F92
S11304F0881FDAF7880F9695879597F908959F3F97
S113050031F0915020F4879577956795B795880FCA
S1130510911D9695879597F908959FEF80EC08951E
S113052000240A94161617061806090608950024CE
S11305300A9412161306140605060895092E039448
S1130540000C11F4882352F0BB0F40F4BF2B11F4BC
S113055060FF04C06F5F7F4F8F4F9F4F0895AA1BAA
S1130560BB1B51E107C0AA1FBB1FA617B70710F09A
S1130570A61BB70B881F991F5A95A9F780959095CC
S10D0580BC01CD010895F894FFCFEB
S109058A01002800A00F8F
S9030000FC
