S01400004D61737465725F4D6963726F2E737265634B
S113000021C03BC03AC039C038C037C036C035C043
S113001034C033C032C00EC130C02FC02EC02DC07A
S11300202CC02BC02AC029C028C027C026C025C088
S113003024C023C033C03EC049C054C05FC06AC09E
S113004075C080C011241FBECFEFD4E0DEBFCDBF8A
S113005011E0A0E0B1E0E4E6F8E002C005900D9202
S1130060A631B107D9F722E0A6E1B1E001C01D92A3
S1130070A535B207E1F7D9D0F3C3C2CF0F931F93CD
S1130080CF93DF938B0150E04830510508F065C0F1
S1130090E8018C01FA01E65EFF4F099440E06881B3
S11300A006D140E06981C80102D140E06A81C801FB
S11300B0FED053C041E06881FAD040E06981C801B4
S11300C0F6D040E06A81C801F2D047C040E06881C0
S11300D0EED041E06981C801EAD040E06A81C801FC
S11300E0E6D03BC041E06881E2D041E06981C801CB
S11300F0DED040E06A81C801DAD02FC040E06881D8
S1130100D6D040E06981C801D2D041E06A81C801FB
S1130110CED023C041E06881CAD040E06981C801E3
S1130120C6D041E06A81C801C2D017C040E06881EE
S1130130BED041E06981C801BAD041E06A81C801FA
S1130140B6D00BC041E06881B2D041E06981C801FA
S1130150AED041E06A81C801AAD0DF91CF911F914E
S11301600F910895CF93C82F682F6695669566956D
S113017070E080E090E0BDD2F7D28DD2462F63E1EB
S113018071E0809100019091010178DF4C2F47705C
S113019060E171E080910001909101016FDF82E0E4
S11301A08A95F1F700C0CF910895FC01E85CFE4FF9
S11301B04081442399F0FC012081621789F09C015D
S11301C0235F3F4F80E08F5F841761F0235F3F4FD1
S11301D0F9013D9790819613F6CF08958FEF089516
S11301E080E008958FEF0895CF93DF9300D0CDB7CB
S11301F0DEB7FC012081298381818A8389819A81E8
S11302000F900F90DF91CF910895CF93DF9300D09B
S1130210CDB7DEB79A838983FB0180838A8181838A
S11302200F900F90DF91CF910895A4D086E191E0D3
S1130230A9D0FFCF1F920F920FB60F9211242F93C4
S11302403F934F935F936F937F938F939F93AF935A
S1130250BF93EF93FF9380914E02882389F080E04F
S11302604DE02FEF3FEFAEE4B2E0489FF0011124E0
S1130270EA5EFE4F348723878F5F9C918917A8F32A
S11302802FEF41E061E086E191E0FCD1FF91EF9135
S1130290BF91AF919F918F917F916F915F914F919A
S11302A03F912F910F900FBE0F901F9018954423EC
S11302B061F021E030E002C0220F331F6A95E2F7BB
S11302C0FC013081232B2083089521E030E002C01B
S11302D0220F331F6A95E2F72095FC013081232316
S11302E020830895CF93C82F8A3011F48DE0FADF6C
S11302F0E0ECF0E0808185FFFDCFC093C600CF9194
S113030008958EE284B917B88EEF8AB9299A2A9A89
S11303102B982D985A985B985C985D985E985F9896
S1130320089582E58CBD8DB58EB50895E1E8F0E0C1
S1130330808188608083AFE6B0E08C9182608C938A
S113034078948FE79EE3909389008093880080815E
S11303508160808308951092C50080E18093C40079
S113036088E18093C10082E091E0909352028093EF
S113037051020895C6DF87E880937A00D2DFD6DF82
S1130380EADF0895F894FC01E85CFE4F28E120833D
S1130390FC0180E020E091E0980FDF01908337E2D8
S11303A0380F3183928380FD04C08E5F83832F5F77
S11303B001C0838314962C93149716961C921E9254
S11303C0159718961C921E9217971A961C921E92B5
S11303D019971C961C921E921B973D96892F983153
S11303E0D1F6789408958EBD0DB407FEFDCF8EB579
S11303F00895EF92FF920F931F93CF93DF934423BB
S1130400C9F0EC01062F172F4150E42EF12C2FEFE9
S1130410E21AF20AE80EF91E8991E5DFF8018193E8
S11304208F018FE99FE00197F1F700C00000CE151E
S1130430DF0591F7DF91CF911F910F91FF90EF901E
S113044008958B5D8FDE209A28980895289A209825
S11304500895FF920F931F93CF93DF93EC018B01C9
S1130460F42E822FEEDF4F2DB801CE01C2DFEEDF76
S1130470DF91CF911F910F91FF900895DF92EF923A
S1130480FF920F931F93CF93DF93CDB7DEB72C97D3
S11304900FB6F894DEBF0FBECDBF8C01D42EF22E62
S11304A084DEE82E21E0D21209C0F8018DE0E89E36
S11304B0E00DF11D11248385948502C080E090E055
S11304C0BE016F5F7F4FA1DEDB82FC8289818D8359
S11304D08A818E832E2D44E0BE01695F7F4FCE0159
S11304E00396B7DF89858B878A858C87CE010B9627
S11304F07BDE22E0F21679F023E0F216A9F021E087
S1130500F2121AC0F8012DE0E29EE00DF11D112453
S11305109683858311C0F8012DE0E29EE00DF11D64
S113052011249087878308C0F8012DE0E29EE00D36
S1130530F11D1124928781872C960FB6F894DEBFA3
S11305400FBECDBFDF91CF911F910F91FF90EF9020
S1130550DF900895AF92BF92CF92DF92EF92FF9215
S11305600F931F93CF93DF93CDB7DEB768970FB682
S1130570F894DEBF0FBECDBF8C01E42E16DEF82E3C
S113058021E0E21209C0F8018DE0F89EE00DF11DB2
S113059011248385948502C080E090E0BE016F5FE2
S11305A07F4F33DEEB828FEF8C8389818D838A8149
S11305B08E831F82188619861A862F2D48E0BE0165
S11305C0655F7F4FCE01039644DF8D858B8B8E85CF
S11305D08C8B8F858D8B88898E8B89898F8B8A896B
S11305E0888FCE01439600DE5C01CE014596FCDD8A
S11305F06C01CE014796F8DDF8012DE0F29EE00D86
S1130600F11D1124B682A582D086C7829287818784
S113061068960FB6F894DEBF0FBECDBFDF91CF91C1
S11306201F910F91FF90EF90DF90CF90BF90AF900C
S113063008952F3F11F022DF08958CDF0895CF92A3
S1130640DF92EF92FF920F931F93CF93DF938C016E
S1130650C62ED42EEC017C0188ECE81A8EEFF80A41
S11306602D2D4C2D6881C801E4DF2D96CE15DF05B4
S1130670B9F7DF91CF911F910F91FF90EF90DF9029
S1130680CF900895342F6F3F11F0D3DF0895422F98
S1130690632FD5DF0895ACD088F09F5790F0B92F21
S11306A09927B751A0F0D1F0660F771F881F991FC3
S11306B01AF0BA95C9F712C0B13081F0CAD0B1E0CE
S11306C00895C7C0672F782F8827B85F39F0B93FDE
S11306D0CCF3869577956795B395D9F73EF49095C5
S11306E08095709561957F4F8F4F9F4F0895E89443
S11306F009C097FB3EF490958095709561957F4F66
S11307008F4F9F4F9923A9F0F92F96E9BB27939513
S1130710F695879577956795B795F111F8CFFAF423
S1130720BB0F11F460FF1BC06F5F7F4F8F4F9F4F54
S113073016C0882311F096E911C0772321F09EE8B2
S1130740872F762F05C0662371F096E8862F70E018
S113075060E02AF09A95660F771F881FDAF7880FF2
S11307609695879597F908955DD080F09F3740F46A
S113077091110EF06FC060E070E080E89FEB089587
S113078026F41B16611D711D811D01C01BC0882329
S113079071F4772321F09850872B762F07C06623B6
S11307A011F499270DC09051862B70E060E02AF077
S11307B09A95660F771F881FDAF7880F96958795A5
S11307C097F908959F3F31F0915020F487957795DC
S11307D06795B795880F911D9695879597F9089514
S11307E057FD9058440F551F59F05F3F71F04795DE
S11307F0880F97FB991F61F09F3F79F087950895C3
S1130800121613061406551FF2CF4695F1DF08C0E1
S1130810161617061806991FF1CF869571056105FE
S113082008940895E5DFA0F0BEE7B91788F4BB2764
S11308309F3860F41616B11D672F782F8827985FAC
S1130840F7CF869577956795B11D93959639C8F33B
S11308500895E894BB2766277727CB0197F9089575
S1070860F894FFCF36
S11308642B000000000200000000720100000000E0
S10908740506070203045F
S9030000FC
