S01B0000536C6176655F4D6963726F5F54657374696E672E7372656378
S113000019C033C032C031C030C02FC02EC02DC083
S11300102CC02BC02AC08CC028C027C026C025C035
S113002024C0B5C022C021C020C01FC01EC01DC036
S11300301CC01BC011241FBECFEFD4E0DEBFCDBF58
S113004011E0A0E0B1E0EAECF1E002C005900D920D
S1130050AE30B107D9F721E0AEE0B1E001C01D92A6
S1130060A631B207E1F762D0AEC0CACFCF93DF9317
S113007000D0CDB7DEB7FC012081298381818A833A
S113008089819A810F900F90DF91CF910895CF933A
S1130090C82F8A3011F48DE0FADFE0ECF0E08081C3
S11300A085FFFDCFC093C600CF91089583E184B945
S11300B017B88EEF8AB9289829982C985A985B9883
S11300C05C985D985E985F98089582EC8CBD8DB5C0
S11300D08EB50895E1E8F0E0808188608083AFE622
S11300E0B0E08C9182608C938FE79EE390938900BB
S11300F08093880080818160808308951092C50078
S113010080E18093C40088E18093C10080E091E0A5
S113011090931301809312010895C8DF87E88093B8
S11301207A00D3DFD7DFEADF78940895F6DFFFCFD4
S11301301F920F920FB60F9211242F933F934F9358
S11301405F936F937F938F939F93AF93BF93EF933B
S1130150FF938EE091E08ADF8115924010F05D9A62
S113016001C05D989BB188E089278BB9FF91EF911D
S1130170BF91AF919F918F917F916F915F914F91BB
S11301803F912F910F900FBE0F901F9018951F92C3
S11301900F920FB60F9211248F939F93EF93FF93B7
S11301A08EB5EEE0F1E09181908381839BB180E193
S11301B089278BB9FF91EF919F918F910F900FBE7B
S10D01C00F901F901895F894FFCFDC
S11101CA0000000200000000470000000000DA
S9030000FC
