:1000000021C03BC03AC039C038C043C236C035C039
:1000100034C033C032C097C130C02FC02EC02DC0F5
:100020002CC0D4C12AC029C028C027C026C025C0E2
:1000300024C023C02BC02DC030C033C036C039C04F
:100040003CC03FC011241FBECFEFD4E0DEBFCDBF08
:1000500011E0A0E0B1E0EAECFAE002C005900D92F8
:10006000AE32B107D9F721E0AEE2B1E001C01D9296
:10007000AD33B207E1F75ED126C5C2CF90E088303C
:10008000910510F5FC01E65EFF4F099410927C008B
:100090001BC081E080937C0017C082E080937C00CD
:1000A00013C083E080937C000FC084E080937C00C9
:1000B0000BC085E080937C0007C086E080937C00C5
:1000C00003C087E080937C00EAE7F0E080818064F1
:1000D0008083808186FDFDCF8091780090917900AA
:1000E0000895CF93DF93EC0180E0C8DF67D0998358
:1000F000888381E0C3DF62D09B838A83DF91CF91C5
:1001000008954F925F926F927F928F929F92AF92DB
:10011000BF92CF92DF92EF92FF924B015C01690197
:100120007A0140902A0150902B0160902C01709030
:100130002D019B01AC01C301B201A8D2A701960118
:1001400009D3882314F429980BC0A3019201C50197
:10015000B4019BD2A7019601DFD318160CF4299A9B
:10016000FF90EF90DF90CF90BF90AF909F908F90D7
:100170007F906F905F904F900895CF93DF9300D062
:10018000CDB7DEB7FC012081298381818A838981F3
:100190009A810F900F90DF91CF910895CF93DF93C5
:1001A00000D0CDB7DEB79A838983FB0180838A8133
:1001B00081830F900F90DF91CF910895BC0180E073
:1001C00090E0F8D228E83FE140E852E4A9D30BD40C
:1001D000C5D2CB010895BC0180E090E0EBD220EACB
:1001E00030E040EA58E39CD30895BC0180E090E001
:1001F000E1D224EB30E044EB5AE392D308952DE1B1
:1002000031E747EA51E48CD30895CF93DF93CDB71C
:10021000DEB760970FB6F894DEBF0FBECDBF80E1AA
:10022000EAE1F1E0DE01119601900D928A95E1F785
:1002300080912E01982F990F990F90932E018BB1D9
:100240008295869586958370892B80932E018F7079
:10025000E1E0F0E0EC0FFD1FE80FF11D80816096FA
:100260000FB6F894DEBF0FBECDBFDF91CF910895DA
:10027000FC01248135812F3FFFE13F0731F46130DC
:1002800079F4FC011582148208952115310541F499
:100290006F3F31F42FEF3FE1FC0135832483089554
:1002A000260F311D67FD3A95FC013583248308959F
:1002B000FC0115821482089583E184B917B88EE396
:1002C0008AB9289829982C985A985B985C985D98D8
:1002D000089582EC8CBD8DB58EB50895E1E8F0E00F
:1002E000808188608083AFE6B0E08C9182608C93DF
:1002F0008FE79EE3909389008093880080818160DE
:10030000808308951092C50080E18093C40088E145
:100310008093C10080E091E090933A01809339018D
:100320000895CADF87E880937A00D3DFD7DFEADF5A
:1003300078940895F6DF8EE091E0DAD09BB180E109
:1003400089278BB9FFCF1F920F920FB60F921124FE
:10035000CF92DF92EF92FF922F933F934F935F9351
:100360006F937F938F939F93AF93BF93EF93FF937D
:100370008FE291E0B6DE809135019091360135DF54
:100380006B017C0180912F019091300124DF37DFD8
:100390009B01AC01C701B601B4DE9BB188E089279F
:1003A0008BB9FF91EF91BF91AF919F918F917F9109
:1003B0006F915F914F913F912F91FF90EF90DF9060
:1003C000CF900F900FBE0F901F9018951F920F9215
:1003D0000FB60F9211242F933F934F935F936F9318
:1003E0007F938F939F93AF93BF93CF93DF93EF93BD
:1003F000FF93EFE6F0E080818D7F80838EB5909152
:100400000E01911103C0809318011EC090910E013E
:10041000913051F4CEE0D1E08B87BE018FE291E0C4
:10042000EBD08C818EBD10C090910E01923060F0A7
:100430004EE051E065E371E00CD1E0910E01F0E097
:10044000E35FFE4F84818EBDEEE0F1E0808161814B
:1004500090E0019670E010D380839BB180E1892702
:100460008BB9EFE6F0E0808182608083FF91EF91AD
:10047000DF91CF91BF91AF919F918F917F916F91BC
:100480005F914F913F912F910F900FBE0F901F9052
:1004900018951F920F920FB60F9211242F933F932E
:1004A0004F935F936F937F938F939F93AF93BF937C
:1004B000EF93FF93F8945D9B04C08FE291E0F8DE28
:1004C00005C0A3DE682F8FE291E0D2DE7894FF9121
:1004D000EF91BF91AF919F918F917F916F915F91BC
:1004E0004F913F912F910F900FBE0F901F90189535
:1004F000FC011482158216821782108611860895D7
:100500000F931F93CF93DF938C01EB01CB01F0DFAF
:10051000BE016C5F7F4FF801808191813FDE83E0F7
:100520008983DF91CF911F910F9108950F931F93AE
:10053000CF93DF938C01EB01CB01DADFBE016C5F5F
:100540007F4FF8018281938129DE83E08983DF91E7
:10055000CF911F910F9108950F931F93CF93DF9326
:100560008C01EB01CB01C4DFBE016C5F7F4FF80152
:100570008481958113DE83E08983DF91CF911F9180
:100580000F910895EF92FF920F931F93CF93DF93F4
:1005900000D0CDB7DEB77C018B01BE016F5F7F4F0E
:1005A000FC0180819181FADD8981F80184838A814F
:1005B0008583BE016F5F7F4FF70182819381EEDDFE
:1005C0008981F80186838A818783BE016F5F7F4FAF
:1005D000F70184819581E2DD8981F80180878A8134
:1005E000818787E081830F900F90DF91CF911F91DA
:1005F0000F91FF90EF9008959C01FB01938592303D
:1006000061F018F4913031F00895933049F09F3F34
:1006100051F00895C90174DF0895C90187DF089575
:10062000C9019ADF0895C901ADDF0895CF93DF9323
:100630009C01FB019081933049F48285813031F433
:10064000CB01E901029699DD99838883DF91CF91EF
:100650000895FA01908190FD02C082830895FA0105
:100660009B018383BA01C901E1DF0895CF93C82FAD
:100670008A3011F48DE0FADFE0ECF0E0808185FF54
:10068000FDCFC093C600CF9108955058BB27AA272D
:100690000ED008C1F9D030F0FED020F031F49F3FE9
:1006A00011F41EF4EEC00EF4E095E7FBE4C0E92F70
:1006B0000AD180F3BA17620773078407950718F009
:1006C00071F49EF522C10EF4E0950B2EBA2FA02DE9
:1006D0000B01B90190010C01CA01A0011124FF27EF
:1006E000591B99F0593F50F4503E68F11A16F040EA
:1006F000A22F232F342F4427585FF3CF46953795E9
:100700002795A795F0405395C9F77EF41F16BA0BAD
:10071000620B730B840BBAF09150A1F0FF0FBB1F5B
:10072000661F771F881FC2F70EC0BA0F621F731FA4
:10073000841F48F4879577956795B795F7959E3F01
:1007400008F0B3CF9395880F08F09927EE0F97958F
:10075000879508956CD008F481E00895BCD088F0A6
:100760009F5790F0B92F9927B751A0F0D1F0660F9D
:10077000771F881F991F1AF0BA95C9F712C0B130B8
:1007800081F0C3D0B1E00895C0C0672F782F8827CB
:10079000B85F39F0B93FCCF3869577956795B395F7
:1007A000D9F73EF490958095709561957F4F8F4F66
:1007B0009F4F0895E89409C097FB3EF4909580956B
:1007C000709561957F4F8F4F9F4F9923A9F0F92F17
:1007D00096E9BB279395F695879577956795B79595
:1007E000F111F8CFFAF4BB0F11F460FF1BC06F5F7B
:1007F0007F4F8F4F9F4F16C0882311F096E911C08D
:10080000772321F09EE8872F762F05C0662371F0AD
:1008100096E8862F70E060E02AF09A95660F771FC1
:10082000881FDAF7880F9695879597F90895990F9D
:100830000008550FAA0BE0E8FEEF16161706E807AA
:10084000F907C0F012161306E407F50798F0621BCB
:10085000730B840B950B39F40A2661F0232B242BA0
:10086000252B21F408950A2609F4A140A6958FEFBF
:10087000811D811D089597F99F6780E870E060E011
:1008800008959FEF80EC089500240A941616170629
:1008900018060906089500240A9412161306140671
:1008A00005060895092E0394000C11F4882352F0D4
:1008B000BB0F40F4BF2B11F460FF04C06F5F7F4F8C
:1008C0008F4F9F4F089557FD9058440F551F59F073
:1008D0005F3F71F04795880F97FB991F61F09F3F2D
:1008E00079F087950895121613061406551FF2CF56
:1008F0004695F1DF08C0161617061806991FF1CFA6
:1009000086957105610508940895E894BB276627CC
:100910007727CB0197F908958ADF08F48FEF0895C0
:100920000BD0C0CFB1DF28F0B6DF18F0952309F067
:10093000A2CFA7CF1124EACFC6DFA0F3959FD1F3B2
:10094000950F50E0551F629FF001729FBB27F00D7D
:10095000B11D639FAA27F00DB11DAA1F649F6627D2
:10096000B00DA11D661F829F2227B00DA11D621F21
:10097000739FB00DA11D621F839FA00D611D221FDB
:10098000749F3327A00D611D231F849F600D211DBF
:10099000822F762F6A2F11249F5750408AF0E1F062
:1009A00088234AF0EE0FFF1FBB1F661F771F881FAB
:1009B00091505040A9F79E3F510570F05CCFA6CFF3
:1009C0005F3FECF3983EDCF3869577956795B79596
:1009D000F795E7959F5FC1F7FE2B880F911D9695C0
:1009E000879597F9089577DFE0F09E37D8F096392C
:1009F000B8F49E3848F4672F782F8827985FF9CF8E
:100A000086957795679593959539D0F3B62FB17004
:100A10006B0F711D811D20F48795779567959395D0
:100A200002C01CC073CF882371F4772321F0985043
:100A3000872B762F07C0662311F499270DC090519C
:100A4000862B70E060E02AF09A95660F771F881F6A
:100A5000DAF7880F9695879597F908959F3F31F0BB
:100A6000915020F4879577956795B795880F911DDC
:100A70009695879597F9089597FB072E16F400949D
:100A800006D077FD08D00BD007FC05D03EF490953A
:100A900081959F4F0895709561957F4F0895AA1B8A
:100AA000BB1B51E107C0AA1FBB1FA617B70710F059
:100AB000A61BB70B881F991F5A95A9F7809590958B
:0A0AC000BC01CD010895F894FFCFAA
:100ACA0000000002000000003603000000000003DE
:100ADA00000000000000000001010001FF00FF000B
:0E0AEA000001010000FF00FF0100A2B2433D29
:00000001FF
