:1000000019C033C032C031C030C02FC02EC02DC087
:100010002CC02BC02AC071C028C027C026C025C054
:1000200024C023C022C021C020C01FC01EC01DC0CC
:100030001CC01BC011241FBECFEFD4E0DEBFCDBF5C
:1000400011E0A0E0B1E0E2E5F1E002C005900D9220
:10005000AA31B107D9F721E0AAE1B1E001C01D92B0
:10006000A032B207E1F740D072C0CACF83E184B9B1
:1000700017B88EE38AB9289829982C985A985B98D3
:100080005C985D98089582EC8CBD8DB58EB5089511
:10009000E1E8F0E0808188608083AFE6B0E08C9199
:1000A00082608C938FE79EE3909389008093880011
:1000B00080818160808308951092C50080E18093E3
:1000C000C40088E18093C10080E091E090931D011D
:1000D00080931C010895CADF87E880937A00D3DFFC
:1000E000D7DFEADF78940895F6DF8EE091E018D04C
:1000F0009BB184E089278BB9FFCF1F920F920FB677
:100100000F9211248F939F93299A9BB188E089279E
:100110008BB99F918F910F900FBE0F901F901895E4
:10012000FC011482158216821782108611860895AA
:10013000CF93C82F8A3011F48DE0FADFE0ECF0E0C5
:10014000808185FFFDCFC093C600CF910895F894BC
:02015000FFCFDF
:100152000000000200000000980000000000000300
:0A0162000000000000000000010191
:00000001FF
