S01C00004D61737465725F4D6963726F5F54657374696E672E7372656306
S113000029C043C042C041C040C03FC03EC03DC003
S11300103CC03BC03AC0C6C138C037C036C035C08A
S113002034C033C032C031C030C02FC02EC02DC048
S11300302CC02BC044C046C049C04CC04FC052C0A5
S113004055C058C086C0A8C0C7C0E7C005C126C1F6
S113005044C163C111241FBECFEFD4E0DEBFCDBFC6
S113006011E0A0E0B1E0E6E2F8E002C005900D92F4
S1130070A631B107D9F721E0A6E1B1E001C01D9294
S1130080AC31B207E1F78CD1CCC3BACFBC0180E06C
S113009090E063D226E038E140E850E417D379D306
S11300A030D2CB016115704110F08FEF9FE00895BD
S11300B08830910510F5FC01E65EFF4F099410921B
S11300C07C001BC081E080937C0017C082E0809399
S11300D07C0013C083E080937C000FC084E0809395
S11300E07C000BC085E080937C0007C086E0809391
S11300F07C0003C087E080937C00EAE7F0E0808125
S113010080648083808186FDFDCF8091780090910A
S113011079000895CF93DF93EC0188279F702A9884
S113012080E3890FD0D18C2FCED12A9A299800C090
S1130130299ADF91CF910895CF93DF93DC01EB01EE
S113014050E04830510508F005C1FA01EE5DFF4F5B
S1130150099441E050E0CA01088002C0880F991F49
S11301600A94E2F780952C91982F92239C939A01FC
S1130170098002C0220F331F0A94E2F7822F809570
S113018089238C930A8002C0440F551F0A94E2F716
S1130190409584238C93DEC021E030E0C9010880BF
S11301A002C0880F991F0A94E2F79C91892B8C93C3
S11301B0A901098002C0440F551F0A94E2F7409533
S11301C084238C930A8002C0220F331F0A94E2F71F
S11301D0209582238C93BEC081E090E09C0108802E
S11301E002C0220F331F0A94E2F720953C91422F5C
S11301F043234C939C01098002C0220F331F0A94AD
S1130200E2F7242B2C930A8002C0880F991F0A94CA
S1130210E2F7809582238C939DC081E090E09C015D
S1130220088002C0220F331F0A94E2F74C91422B3C
S11302304C939C01098002C0220F331F0A94E2F7F9
S1130240242B2C930A8002C0880F991F0A94E2F78A
S1130250809582238C937EC081E090E09C0108808D
S113026002C0220F331F0A94E2F720954C91322FDB
S113027034233C93AC01098002C0440F551F0A94F7
S1130280E2F7242F209523232C930A8002C0880FA1
S1130290991F0A94E2F7822B8C935CC081E090E072
S11302A09C01088002C0220F331F0A94E2F73C919C
S11302B0232B2C93AC01098002C0440F551F0A94D0
S11302C0E2F7409524232C930A8002C0880F991FDB
S11302D00A94E2F7822B8C933DC081E090E09C016C
S11302E0088002C0220F331F0A94E2F720953C9144
S11302F0422F43234C939C01098002C0220F331FD9
S11303000A94E2F7242B2C930A8002C0880F991FC9
S11303100A94E2F7822B8C931DC081E090E09C014B
S1130320088002C0220F331F0A94E2F74C91422B3B
S11303304C939C01098002C0220F331F0A94E2F7F8
S1130340242B2C930A8002C0880F991F0A94E2F789
S1130350822B8C93DF91CF910895CF93C82F682F70
S113036066956695669570E080E090E0F8D032D1AD
S1130370C8D0462F63E171E08091000190910101A2
S1130380DBDE4C2F477060E171E0809100019091B9
S11303900101D2DE82E08A95F1F700C0CF91089581
S11303A08AD0FFCF1F920F920FB60F9211242F9372
S11303B03F934F935F936F937F938F939F93AF93E9
S11303C0BF93CF93DF93EF93FF9320988FE3C5DF21
S11303D080E090E06DDEEC0159DE9CDE61E0CE0150
S11303E07DD062E0CE017AD063E0CE0177D064E0C4
S11303F0CE0174D065E0CE0171D066E0CE016ED03E
S1130400FF91EF91DF91CF91BF91AF919F918F9128
S11304107F916F915F914F913F912F910F900FBEFC
S11304200F901F901895CF93C82F8A3011F48DE048
S1130430FADFE0ECF0E0808185FFFDCFC093C600D9
S1130440CF9108958EE284B917B88EEF8AB9299AAC
S11304502A9A2B982D985A985B985C985D985E9888
S11304605F98089582E58CBD8DB58EB50895E1E859
S1130470F0E0808188608083AFE6B0E08C91826098
S11304808C9378948FE79EE39093890080938800FF
S113049080818160808308951092C50080E18093FB
S11304A0C40088E18093C10082E091E09093190137
S11304B0809318010895C6DF87E880937A00D2DF1D
S11304C0D6DFEADF08958EBD0DB407FEFDCF089593
S11304D08EBD0DB407FEFDCF8EB50895CF93DF9387
S11304E0EC0185E2860F39DF209A28988C2FF0DF03
S11304F0CC27DF708D2FECDF289A2098DF91CF91E5
S11305000895ACD088F09F5790F0B92F9927B75130
S1130510A0F0D1F0660F771F881F991F1AF0BA95C3
S1130520C9F712C0B13081F0CAD0B1E00895C7C094
S1130530672F782F8827B85F39F0B93FCCF38695B9
S113054077956795B395D9F73EF490958095709516
S113055061957F4F8F4F9F4F0895E89409C097FB93
S11305603EF490958095709561957F4F8F4F9F4F86
S11305709923A9F0F92F96E9BB279395F6958795CA
S113058077956795B795F111F8CFFAF4BB0F11F48D
S113059060FF1BC06F5F7F4F8F4F9F4F16C0882334
S11305A011F096E911C0772321F09EE8872F762F6A
S11305B005C0662371F096E8862F70E060E02AF0AB
S11305C09A95660F771F881FDAF7880F9695879597
S11305D097F908955DD080F09F3740F491110EF0A3
S11305E06FC060E070E080E89FEB089526F41B166E
S11305F0611D711D811D01C01BC0882371F4772307
S113060021F09850872B762F07C0662311F4992781
S11306100DC09051862B70E060E02AF09A95660F29
S1130620771F881FDAF7880F9695879597F90895AD
S11306309F3F31F0915020F4879577956795B79552
S1130640880F911D9695879597F9089557FD9058B1
S1130650440F551F59F05F3F71F04795880F97FB82
S1130660991F61F09F3F79F087950895121613063C
S11306701406551FF2CF4695F1DF08C0161617066B
S11306801806991FF1CF86957105610508940895A0
S1130690E5DFA0F0BEE7B91788F4BB279F3860F404
S11306A01616B11D672F782F8827985FF7CF869588
S11306B077956795B11D93959639C8F30895E89495
S11306C0BB2766277727CB0197F908950BD098C0ED
S11306D089D028F08ED018F0952309F07AC07FC015
S11306E01124EECFB3DFA0F3959FD1F3950F50E023
S11306F0551F629FF001729FBB27F00DB11D639FD0
S1130700AA27F00DB11DAA1F649F6627B00DA11D75
S1130710661F829F2227B00DA11D621F739FB00D1B
S1130720A11D621F839FA00D611D221F749F33278B
S1130730A00D611D231F849F600D211D822F762F24
S11307406A2F11249F5750408AF0E1F088234AF021
S1130750EE0FFF1FBB1F661F771F881F915050406D
S1130760A9F79E3F510570F034C0AACF5F3FECF368
S1130770983EDCF3869577956795B795F795E79559
S11307809F5FC1F7FE2B880F911D9695879597F96A
S1130790089564DFE0F09E37D8F09639B8F49E38B7
S11307A048F4672F782F8827985FF9CF8695779537
S11307B0679593959539D0F3B62FB1706B0F711D72
S11307C0811D20F4879577956795939516CF30CF43
S11307D077CF97F99F6780E870E060E008959FEF16
S11307E080EC089500240A941616170618060906C4
S11307F0089500240A941216130614060506089593
S1130800092E0394000C11F4882352F0BB0F40F41A
S1130810BF2B11F460FF04C06F5F7F4F8F4F9F4F5A
S10908200895F894FFCFD7
S11308262B0000000002000000001302000000007C
S10908360506070203049D
S9030000FC
