:1000000021C03BC03AC039C038C037C036C035C047
:1000100034C033C032C05DC130C02FC02EC02DC02F
:100020002CC0B6C12AC029C028C027C026C025C000
:1000300024C023C02AC02CC02FC032C035C038C055
:100040003BC03EC011241FBECFEFD4E0DEBFCDBF0A
:1000500011E0A0E0B1E0E0E4F8E002C005900D920C
:10006000A231B107D9F721E0A2E1B1E001C01D92B0
:10007000AD31B207E1F72BD1E1C3C2CF8830910592
:1000800010F5FC01E65EFF4F099410927C001BC046
:1000900081E080937C0017C082E080937C0013C0D5
:1000A00083E080937C000FC084E080937C000BC0D1
:1000B00085E080937C0007C086E080937C0003C0CD
:1000C00087E080937C00EAE7F0E0808180648083B1
:1000D000808186FDFDCF8091780090917900089510
:1000E0004F925F926F927F928F929F92AF92BF9248
:1000F000CF92DF92EF92FF924B015C0169017A018E
:1001000040900E0150900F0160901001709011010D
:100110009B01AC01C301B20171D1A7019601D2D1FB
:10012000882314F429980BC0A3019201C501B401DE
:1001300064D1A7019601FBD218160CF4299AFF90FE
:10014000EF90DF90CF90BF90AF909F908F907F9077
:100150006F905F904F900895CF93DF9300D0CDB70D
:10016000DEB7FC012081298381818A8389819A817C
:100170000F900F90DF91CF910895CF93DF9300D030
:10018000CDB7DEB79A838983FB0180838A8181831F
:100190000F900F90DF91CF910895A0E0B0E0880F0D
:1001A000991FAA1FBB1F880F991FAA1FBB1F880F6B
:1001B000991FAA1FBB1F880F991FAA1FBB1FBC0135
:1001C000CD01660F771F881F991F660F771F881F45
:1001D000991FAAD113D37AD1CB010895BC0180E035
:1001E00090E0A0D120E031EC4FE75CE3A4D206D34D
:1001F0006DD1CB010895BC0180E090E093D129E05E
:100200003CEB49E85BE397D20895813723E09207FE
:1002100010F080E793E0BC0180E090E083D12DEC0A
:100220003CEC44E95FE387D2BAD150D1CB010895C9
:10023000CF93C82F8A3011F48DE0FADFE0ECF0E0C4
:10024000808185FFFDCFC093C600CF91089583E1E3
:1002500084B917B88EEF8AB9289829982C985A989B
:100260005B985C985D985E985F98089582EC8CBD71
:100270008DB58EB50895E1E8F0E0808188608083D7
:10028000AFE6B0E08C9182608C938FE79EE3909311
:100290008900809388008081816080830895109216
:1002A000C50080E18093C40088E18093C10080E0B4
:1002B00091E090931A01809319010895C8DF87E8AF
:1002C00080937A00D3DFD7DFEADF78940895F6DFF2
:1002D000FFCF1F920F920FB60F921124CF92DF9291
:1002E000EF92FF920F931F932F933F934F935F9340
:1002F0006F937F938F939F93AF93BF93EF93FF93EE
:10030000CF93DF9300D0CDB7DEB785E191E024DF56
:1003100065DF71DF6B017C0180E090E0AFDE75DFAF
:100320008C013BDFBE016F5F7F4F27DF80911201A1
:10033000811108C08981E3E1F1E080838A818183B2
:1003400080818EBDC80157DF9B01AC01C701B6019A
:10035000C7DE9BB188E089278BB90F900F90DF91A2
:10036000CF91FF91EF91BF91AF919F918F917F912D
:100370006F915F914F913F912F911F910F91FF903E
:10038000EF90DF90CF900F900FBE0F901F901895B9
:100390001F920F920FB60F9211242F938F939F935A
:1003A000EF93FF93F8942EB58091120190E001969F
:1003B00081709078992324F401978E6F9F6F019636
:1003C00080931201E0911201F0E0ED5EFE4F80811A
:1003D0008EBDE5E1F1E08181808321839BB180E1E5
:1003E00089278BB97894FF91EF919F918F912F91ED
:1003F0000F900FBE0F901F9018955058BB27AA273B
:100400000ED044C135D130F03AD120F031F49F3FC5
:1004100011F41EF42AC10EF4E095E7FBF7C0E92FB2
:1004200046D180F3BA17620773078407950718F05F
:1004300071F49EF575C10EF4E0950B2EBA2FA02D28
:100440000B01B90190010C01CA01A0011124FF2781
:10045000591B99F0593F50F4503E68F11A16F0407C
:10046000A22F232F342F4427585FF3CF469537957B
:100470002795A795F0405395C9F77EF41F16BA0B40
:10048000620B730B840BBAF09150A1F0FF0FBB1FEE
:10049000661F771F881FC2F70EC0BA0F621F731F37
:1004A000841F48F4879577956795B795F7959E3F94
:1004B00008F0B3CF9395880F08F09927EE0F979522
:1004C000879508957FD008F481E00895F8D088F0EA
:1004D0009F5790F0B92F9927B751A0F0D1F0660F30
:1004E000771F881F991F1AF0BA95C9F712C0B1304B
:1004F00081F016D1B1E0089513C1672F782F8827B6
:10050000B85F39F0B93FCCF3869577956795B39589
:10051000D9F73EF490958095709561957F4F8F4FF8
:100520009F4F0895E89409C097FB3EF490958095FD
:10053000709561957F4F8F4F9F4F9923A9F0F92FA9
:1005400096E9BB279395F695879577956795B79527
:10055000F111F8CFFAF4BB0F11F460FF1BC06F5F0D
:100560007F4F8F4F9F4F16C0882311F096E911C01F
:10057000772321F09EE8872F762F05C0662371F040
:1005800096E8862F70E060E02AF09A95660F771F54
:10059000881FDAF7880F9695879597F90895A9D05F
:1005A00080F09F3740F491110EF0BBC060E070E026
:1005B00080E89FEB089526F41B16611D711D811DB7
:1005C0002BC045C0990F0008550FAA0BE0E8FEEFBD
:1005D00016161706E807F907C0F012161306E40707
:1005E000F50798F0621B730B840B950B39F40A2600
:1005F00061F0232B242B252B21F408950A2609F4DE
:10060000A140A6958FEF811D811D089597F99F67E1
:1006100080E870E060E00895882371F4772321F08A
:100620009850872B762F07C0662311F499270DC0A9
:100630009051862B70E060E02AF09A95660F771F44
:10064000881FDAF7880F9695879597F908959F3F49
:1006500031F0915020F4879577956795B795880F7D
:10066000911D9695879597F908959FEF80EC0895D1
:1006700000240A9416161706180609060895002481
:100680000A9412161306140605060895092E0394FB
:10069000000C11F4882352F0BB0F40F4BF2B11F46F
:1006A00060FF04C06F5F7F4F8F4F9F4F089557FDCE
:1006B0009058440F551F59F05F3F71F04795880FD0
:1006C00097FB991F61F09F3F79F087950895121667
:1006D00013061406551FF2CF4695F1DF08C0161613
:1006E00017061806991FF1CF8695710561050894C4
:1006F0000895E5DFA0F0BEE7B91788F4BB279F385F
:1007000060F41616B11D672F782F8827985FF7CFF2
:10071000869577956795B11D93959639C8F3089599
:10072000E894BB2766277727CB0197F908954ADF1E
:1007300008F48FEF08950BD0A9CF9ADF28F09FDF40
:1007400018F0952309F062CF90CF1124EACFAFDFE4
:10075000A0F3959FD1F3950F50E0551F629FF001D4
:10076000729FBB27F00DB11D639FAA27F00DB11D2D
:10077000AA1F649F6627B00DA11D661F829F2227B6
:10078000B00DA11D621F739FB00DA11D621F839F3D
:10079000A00D611D221F749F3327A00D611D231F13
:1007A000849F600D211D822F762F6A2F11249F5761
:1007B00050408AF0E1F088234AF0EE0FFF1FBB1F84
:1007C000661F771F881F91505040A9F79E3F510523
:1007D00070F01CCFA6CF5F3FECF3983EDCF386951C
:1007E00077956795B795F795E7959F5FC1F7FE2BCE
:1007F000880F911D9695879597F9089560DFE0F031
:100800009E37D8F09639B8F49E3848F4672F782F81
:100810008827985FF9CF8695779567959395953951
:10082000D0F3B62FB1706B0F711D811D20F4879529
:10083000779567959395F0CE0ACF73CFF894FFCF55
:100840000000000200000000180100000000A2B239
:02085000433D26
:00000001FF
