S01C00004D61737465725F4D6963726F5F54657374696E672E7372656306
S113000021C03BC03AC039C038C037C036C035C043
S113001034C033C032C0C2C130C02FC02EC02DC0C6
S11300202CC02BC02AC029C028C027C026C025C088
S113003024C023C054C076C095C0B5C0D3C0F4C09A
S113004012C131C111241FBECFEFD4E0DEBFCDBF3A
S113005011E0A0E0B1E0E0EFFBE002C005900D92FA
S1130060A834B107D9F721E0A8E4B1E001C01D929A
S1130070A035B207E1F790D1B9C5C2CFBC0180E089
S113008090E050D426E038E140E850E404D566D549
S11300901DD4CB016115704110F08FEF9FE00895DE
S11300A0CF93DF93EC0188279F702A9880E3890F10
S11300B067D38C2F65D32A9A299800C0299ADF9197
S11300C0CF910895CF93DF93DC01EB0150E04830EA
S11300D0510508F005C1FA01E65EFF4F099441E0BD
S11300E050E0CA01088002C0880F991F0A94E2F701
S11300F080952C91982F92239C939A01098002C099
S1130100220F331F0A94E2F7822F809589238C9360
S11301100A8002C0440F551F0A94E2F740958423D5
S11301208C93DEC021E030E0C901088002C0880F52
S1130130991F0A94E2F79C91892B8C93A901098059
S113014002C0440F551F0A94E2F7409584238C9310
S11301500A8002C0220F331F0A94E2F720958223FB
S11301608C93BEC081E090E09C01088002C0220F05
S1130170331F0A94E2F720953C91422F43234C937A
S11301809C01098002C0220F331F0A94E2F7242B3A
S11301902C930A8002C0880F991F0A94E2F7809575
S11301A082238C939DC081E090E09C01088002C072
S11301B0220F331F0A94E2F74C91422B4C939C017B
S11301C0098002C0220F331F0A94E2F7242B2C93D8
S11301D00A8002C0880F991F0A94E2F7809582234F
S11301E08C937EC081E090E09C01088002C0220FC5
S11301F0331F0A94E2F720954C91322F34233C9319
S1130200AC01098002C0440F551F0A94E2F7242F61
S1130210209523232C930A8002C0880F991F0A94E7
S1130220E2F7822B8C935CC081E090E09C01088013
S113023002C0220F331F0A94E2F73C91232B2C9324
S1130240AC01098002C0440F551F0A94E2F740959F
S113025024232C930A8002C0880F991F0A94E2F782
S1130260822B8C933DC081E090E09C01088002C009
S1130270220F331F0A94E2F720953C91422F432327
S11302804C939C01098002C0220F331F0A94E2F7A9
S1130290242B2C930A8002C0880F991F0A94E2F73A
S11302A0822B8C931DC081E090E09C01088002C0E9
S11302B0220F331F0A94E2F74C91422B4C939C017A
S11302C0098002C0220F331F0A94E2F7242B2C93D7
S11302D00A8002C0880F991F0A94E2F7822B8C933C
S11302E0DF91CF910895CF93C82F682F66956695B7
S11302F0669570E080E090E017D351D3E7D2462FA3
S113030063E471E08091000190910101DBDE4C2FE8
S1130310477060E471E08091000190910101D2DEA8
S113032082E08A95F1F700C0CF910895282F80913B
S11303301001281771F0E2E1F1E081E004C08F5F61
S11303403296883121F090819213F9CF08958FEF7E
S1130350089580E00895CF93DF9300D0CDB7DEB742
S1130360FC012081298381818A8389819A810F906C
S11303700F90DF91CF910895CF93DF9300D0CDB745
S1130380DEB79A838983FB0180838A8181830F90FE
S11303900F90DF91CF910895EBD1FFCF1F920F9271
S11303A00FB60F9211242F933F934F935F936F9344
S11303B07F938F939F93AF93BF93EF93FF93CF93C9
S11303C0DF93CDB7DEB7C65ED109DEBFCDBFCE01A8
S11303D0019654D1BE016C587F4FCE010196F9D1DC
S11303E0C653DF4F88819981CA5CD04047DE58DE0E
S11303F0CE018C589F4F55D0CA51DF4F0FB6F89499
S1130400DEBF0FBECDBFDF91CF91FF91EF91BF91C2
S1130410AF919F918F917F916F915F914F913F9198
S11304202F910F900FBE0F901F901895CF93C82F48
S11304308A3011F48DE0FADFE0ECF0E0808185FF92
S1130440FDCFC093C600CF910895E0ECF0E0808129
S11304508823ECF78091C6000895EF92FF920F93E2
S11304601F93CF93DF930091460110E010161106FD
S11304708CF4C0E0D0E00F2EFAE4EF2EF1E0FF2E72
S1130480F02DF701628173818FEFD0DF2196C017C1
S1130490D107B9F7DF91CF911F910F91FF90EF90A2
S11304A008953F924F925F926F927F928F929F92A4
S11304B0AF92BF92CF92DF92EF92FF920F931F936E
S11304C0CF93DF9300D01F92CDB7DEB72C01C5DFE9
S11304D060914C0170914D0182010E581F4FF8013B
S11304E08081A4DFF801808190E05C01F2E0AF1A22
S11304F0FEEFBF0A18161906E4F5420126E2820E41
S1130500911C3201C12CD12C0F2EFAE4EF2EF1E014
S1130510FF2EF02D2801BE016F5F7F4FF401819102
S113052091914F0129DFF30181913F018B838B81ED
S1130530F701628173817ADF3B808981F7016281EF
S1130540738174DF098110E0030D111D8A81F701A5
S1130550628173816BDF8A81080F111DA00EB11EA9
S1130560FFEFCF1ADF0AF201808190E0C816D906A6
S113057094F260914C0170914D018A2D57DF0F90D8
S11305800F900F90DF91CF911F910F91FF90EF90FB
S1130590DF90CF90BF90AF909F908F907F906F909F
S11305A05F904F903F9008954F925F926F927F9229
S11305B08F929F92AF92BF92CF92DF92EF92FF926F
S11305C00F931F93CF93DF93CDB7DEB76DB67EB68F
S11305D0A0904601B12C45018DB79EB78A199B099D
S11305E00FB6F8949EBF0FBE8DBF01966C011A140E
S11305F01B0404F5FC018A0D9B1D1192E817F907F1
S1130600E1F718C082918183EE16FF06D9F71AC06C
S11306102191852D2F3F09F0842D9823E017F107B0
S1130620B9F7911115C01A141B048CF4F601E80DE6
S1130630F91DE8CF76018601080D191D5524539440
S1130640412CF1CF02DFF601808391E0E1CFFDDEA2
S11306500FB6F8947EBE0FBE6DBEDF91CF911F9191
S11306600F91FF90EF90DF90CF90BF90AF909F904D
S11306708F907F906F905F904F9008959F92AF926C
S1130680BF92CF92DF92EF92FF920F931F93CF937B
S1130690DF935C0189DFD9DE982E882301F175018F
S11306A085010A5D1F4FC82ED12C83E1C80ED11CD1
S11306B0CC0CDD1CCA0CDB1CC8E4D1E0C6DEF7019F
S11306C081937F01C2DE8883C0DE8983CE0143DE4D
S11306D0F801819391938F01EC15FD0579F7F501EC
S11306E0EE58FF4F9082DF91CF911F910F91FF90B1
S11306F0EF90DF90CF90BF90AF909F9008958EE2DF
S113070084B917B88EEF8AB9299A2A9A2B982D980A
S11307105A985B985C985D985E985F98089582E516
S11307208CBD8DB58EB50895E1E8F0E080818860D8
S11307308083AFE6B0E08C9182608C9378948FE7ED
S11307409EE39093890080938800808181608083F8
S113075008951092C50080E18093C40088E18093DD
S1130760C10082E091E090934D0180934C01089583
S1130770C6DF87E880937A00D2DFD6DFEADF089508
S11307808EBD0DB407FEFDCF08958EBD0DB407FEDA
S1130790FDCF8EB50895CF93DF93C82FD92F85E26F
S11307A0860FA1DD209A28988C2FEFDFC82F8FE9C0
S11307B09FE00197F1F700C000008D2FE6DF289A33
S11307C020982C2F30E0A901582BCA01DF91CF913A
S11307D008958F929F92AF92BF92CF92DF92EF9241
S11307E0FF920F931F93CF93DF936C018B01FB0157
S11307F0EE58FF4F1082FC01EE58FF4F8081D0E08D
S1130800D817C8F5C0E05B0182E7A80EB11C4F0100
S1130810ED2EF12CF601EE0DFF1D808187DD8F3F5B
S113082021F1A82FB0E0AA0FBB1FA05FBE4FF701B4
S11308307396EE0FFF1FEC0DFD1D11966C918081D8
S11308409181A9DF2C2F30E0CF5FF801E20FF31F75
S1130850C083F9017396EE0FFF1FE00FF11F918320
S11308608083F50180818F5F8083DF5FF401808165
S1130870D81770F201C0C0E0F801EE58FF4F308184
S11308802EE02C0F8C2F90E0CF5FF801E80FF91FBA
S1130890C083FC017396EE0FFF1FE00FF11F11825E
S11308A010822C13EFCFF801EE58FF4F8EE0830F28
S11308B08083DF91CF911F910F91FF90EF90DF9094
S11308C0CF90BF90AF909F908F900895ACD088F058
S11308D09F5790F0B92F9927B751A0F0D1F0660F28
S11308E0771F881F991F1AF0BA95C9F712C0B13043
S11308F081F0CAD0B1E00895C7C0672F782F882748
S1130900B85F39F0B93FCCF3869577956795B39581
S1130910D9F73EF490958095709561957F4F8F4FF0
S11309209F4F0895E89409C097FB3EF490958095F5
S1130930709561957F4F8F4F9F4F9923A9F0F92FA1
S113094096E9BB279395F695879577956795B7951F
S1130950F111F8CFFAF4BB0F11F460FF1BC06F5F05
S11309607F4F8F4F9F4F16C0882311F096E911C017
S1130970772321F09EE8872F762F05C0662371F038
S113098096E8862F70E060E02AF09A95660F771F4C
S1130990881FDAF7880F9695879597F908955DD0A3
S11309A080F09F3740F491110EF06FC060E070E06A
S11309B080E89FEB089526F41B16611D711D811DAF
S11309C001C01BC0882371F4772321F09850872B32
S11309D0762F07C0662311F499270DC09051862BFA
S11309E070E060E02AF09A95660F771F881FDAF7A7
S11309F0880F9695879597F908959F3F31F0915008
S1130A0020F4879577956795B795880F911D9695EE
S1130A10879597F9089557FD9058440F551F59F03D
S1130A205F3F71F04795880F97FB991F61F09F3FD7
S1130A3079F087950895121613061406551FF2CF00
S1130A404695F1DF08C0161617061806991FF1CF50
S1130A5086957105610508940895E5DFA0F0BEE769
S1130A60B91788F4BB279F3860F41616B11D672F99
S1130A70782F8827985FF7CF869577956795B11D6E
S1130A8093959639C8F30895E894BB27662777278A
S1130A90CB0197F908950BD098C089D028F08ED057
S1130AA018F0952309F07AC07FC01124EECFB3DF8C
S1130AB0A0F3959FD1F3950F50E0551F629FF0016D
S1130AC0729FBB27F00DB11D639FAA27F00DB11DC6
S1130AD0AA1F649F6627B00DA11D661F829F22274F
S1130AE0B00DA11D621F739FB00DA11D621F839FD6
S1130AF0A00D611D221F749F3327A00D611D231FAC
S1130B00849F600D211D822F762F6A2F11249F57F9
S1130B1050408AF0E1F088234AF0EE0FFF1FBB1F1C
S1130B20661F771F881F91505040A9F79E3F5105BB
S1130B3070F034C0AACF5F3FECF3983EDCF38695A7
S1130B4077956795B795F795E7959F5FC1F7FE2B66
S1130B50880F911D9695879597F9089564DFE0F0C5
S1130B609E37D8F09639B8F49E3848F4672F782F1A
S1130B708827985FF9CF86957795679593959539EA
S1130B80D0F3B62FB1706B0F711D811D20F48795C2
S1130B9077956795939516CF30CF77CF97F99F6761
S1130BA080E870E060E008959FEF80EC08950024F1
S1130BB00A941616170618060906089500240A94BE
S1130BC012161306140605060895092E0394000C44
S1130BD011F4882352F0BB0F40F4BF2B11F460FFD3
S1130BE004C06F5F7F4F8F4F9F4F0895F894FFCFDE
S1130BF02B000000000200000000160200000000AC
S1130C002701280229032A042B052C062D072E0868
S1130C102F09300A310B320C330D340E350F3610D8
S1130C203711381239133A143B153C163D173E1848
S10B0C3005060702030402009B
S9030000FC
