S01F0000466C6F775F526174655F436F6E74726F6C5F56616C76652E73726563E5
S113000021C03BC03AC039C038C037C036C035C043
S113001034C033C032C08AC030C02FC02EC02DC0FF
S11300202CC02BC02AC029C028C027C026C025C088
S113003024C023C03CC03EC041C044C047C04AC0E5
S11300404DC050C011241FBECFEFD4E0DEBFCDBFE2
S113005011E0A0E0B1E0E4EFF4E002C005900D92FD
S1130060AE30B107D9F721E0AEE0B1E001C01D9296
S1130070A431B207E1F758D03BC2C2CFBC0180E043
S113008090E0FCD026E038E140E850E486D1E8D1A5
S1130090C9D0CB016115704110F08FEF9FE0089536
S11300A08830910510F5FC01E65EFF4F099410922B
S11300B07C001BC081E080937C0017C082E08093A9
S11300C07C0013C083E080937C000FC084E08093A5
S11300D07C000BC085E080937C0007C086E08093A1
S11300E07C0003C087E080937C00EAE7F0E0808135
S11300F080648083808186FDFDCF8091780090911B
S113010079000895CF93DF93EC0188279F70289896
S113011080E3890F82D08C2F80D0289A299800C040
S1130120299ADF91CF91089570D0FFCF1F920F923B
S11301300FB60F9211242F933F934F935F936F93B6
S11301407F938F939F93AF93BF93EF93FF9380E03D
S113015090E0A6DF93DFD6DFFF91EF91BF91AF91DF
S11301609F918F917F916F915F914F913F912F91CB
S11301700F900FBE0F901F901895CF93C82F8A3001
S113018011F48DE0FADFE0ECF0E0808185FFFDCF33
S1130190C093C600CF9108958FE284B917B88EEF4B
S11301A08AB9299A2A9A2B982D985A985B985C9820
S11301B05D985E985F98089582E58CBD8DB58EB587
S11301C00895E1E8F0E0808188608083AFE6B0E0E4
S11301D08C9182608C9378948FE79EE3909389004E
S11301E08093880080818160808308951092C50087
S11301F080E18093C40088E18093C10080E091E0B5
S113020090931101809310010895C6DF87E88093CD
S11302107A00D2DFD6DFEADF08958EBD0DB407FE83
S1130220FDCF089599D088F09F5790F0B92F992762
S1130230B751A0F0D1F0660F771F881F991F1AF0ED
S1130240BA95C9F712C0B13081F0A0D0B1E00895D9
S11302509DC0672F782F8827B85F39F0B93FCCF35A
S1130260869577956795B395D9F73EF490958095E3
S1130270709561957F4F8F4F9F4F0895E89409C003
S113028097FB3EF490958095709561957F4F8F4FC5
S11302909F4F9923A9F0F92F96E9BB279395F695DB
S11302A0879577956795B795F111F8CFFAF4BB0F59
S11302B011F460FF1BC06F5F7F4F8F4F9F4F16C0BD
S11302C0882311F096E911C0772321F09EE8872F47
S11302D0762F05C0662371F096E8862F70E060E003
S11302E02AF09A95660F771F881FDAF7880F96957C
S11302F0879597F90895882371F4772321F098500E
S1130300872B762F07C0662311F499270DC09051CF
S1130310862B70E060E02AF09A95660F771F881F9D
S1130320DAF7880F9695879597F908959F3F31F0EE
S1130330915020F4879577956795B795880F911D0F
S11303409695879597F9089557FD9058440F551F32
S113035059F05F3F71F04795880F97FB991F61F043
S11303609F3F79F087950895121613061406551FBA
S1130370F2CF4695F1DF08C0161617061806991F26
S1130380F1CF86957105610508940895E894BB271B
S113039066277727CB0197F908950BD098C089D0A9
S11303A028F08ED018F0952309F07AC07FC011246C
S11303B0EECFCADFA0F3959FD1F3950F50E0551F00
S11303C0629FF001729FBB27F00DB11D639FAA27A6
S11303D0F00DB11DAA1F649F6627B00DA11D661FF5
S11303E0829F2227B00DA11D621F739FB00DA11D16
S11303F0621F839FA00D611D221F749F3327A00DD0
S1130400611D231F849F600D211D822F762F6A2F6B
S113041011249F5750408AF0E1F088234AF0EE0FF0
S1130420FF1FBB1F661F771F881F91505040A9F7FD
S11304309E3F510570F034C0AACF5F3FECF3983E65
S1130440DCF3869577956795B795F795E7959F5F64
S1130450C1F7FE2B880F911D9695879597F90895FE
S11304607BDFE0F09E37D8F09639B8F49E3848F434
S1130470672F782F8827985FF9CF869577956795AA
S113048093959539D0F3B62FB1706B0F711D811D03
S113049020F487957795679593952DCF47CF77CFA0
S11304A097F99F6780E870E060E008959FEF80EC23
S11304B0089500240A9416161706180609060895C6
S11304C000240A9412161306140605060895092E2C
S11304D00394000C11F4882352F0BB0F40F4BF2B9B
S11304E011F460FF04C06F5F7F4F8F4F9F4F0895DB
S10704F0F894FFCFAA
S11104F40000000200000000BD000000000037
S9030000FC
